{
  "contractName": "Recorder",
  "abi": [
    {
      "anonymous": false,
      "inputs": [
        {
          "indexed": false,
          "internalType": "address",
          "name": "from",
          "type": "address"
        },
        {
          "indexed": false,
          "internalType": "int256",
          "name": "amount",
          "type": "int256"
        }
      ],
      "name": "RecordDone",
      "type": "event"
    },
    {
      "anonymous": false,
      "inputs": [
        {
          "indexed": false,
          "internalType": "address",
          "name": "from",
          "type": "address"
        },
        {
          "indexed": false,
          "internalType": "int256",
          "name": "amount",
          "type": "int256"
        }
      ],
      "name": "prepareGiftDone",
      "type": "event"
    },
    {
      "constant": false,
      "inputs": [
        {
          "internalType": "int256",
          "name": "para",
          "type": "int256"
        },
        {
          "internalType": "uint256",
          "name": "epoch",
          "type": "uint256"
        }
      ],
      "name": "recordPara",
      "outputs": [
        {
          "internalType": "bool",
          "name": "",
          "type": "bool"
        }
      ],
      "payable": false,
      "stateMutability": "nonpayable",
      "type": "function"
    },
    {
      "constant": false,
      "inputs": [],
      "name": "getGift",
      "outputs": [
        {
          "internalType": "uint256",
          "name": "",
          "type": "uint256"
        },
        {
          "internalType": "uint256",
          "name": "",
          "type": "uint256"
        },
        {
          "internalType": "int256",
          "name": "",
          "type": "int256"
        }
      ],
      "payable": false,
      "stateMutability": "nonpayable",
      "type": "function"
    }
  ],
  "bytecode": "0x60806040526002600055600060015560006004556000600555600060065534801561002957600080fd5b506104c0806100396000396000f3fe608060405234801561001057600080fd5b50600436106100365760003560e01c806309a710fb1461003b578063e354c44314610067575b600080fd5b6100436100b7565b60405180848152602001838152602001828152602001935050505060405180910390f35b61009d6004803603604081101561007d57600080fd5b810190808035906020019092919080359060200190929190505050610101565b604051808215151515815260200191505060405180910390f35b600080600080600554116100db5760055460065460008090509250925092506100fc565b60016005600082825403925050819055506005546006546004549250925092505b909192565b600061010c826102e3565b60065482101561011f57600090506102dd565b82600360003373ffffffffffffffffffffffffffffffffffffffff1673ffffffffffffffffffffffffffffffffffffffff1681526020019081526020016000208190555060023390806001815401808255809150509060018203906000526020600020016000909192909190916101000a81548173ffffffffffffffffffffffffffffffffffffffff021916908373ffffffffffffffffffffffffffffffffffffffff160217905550507fa0958957944ed71b335741cdff2e4807804a7f858795d4ed666ff82141f9c84d3384604051808373ffffffffffffffffffffffffffffffffffffffff1673ffffffffffffffffffffffffffffffffffffffff1681526020018281526020019250505060405180910390a1600054600280549050106102d8576001151561024e610309565b151514156102d657600260006102649190610445565b7f1b7399ad577e4515a39f51844d80315b5497bf8e4bcb1bb7bccb8b539031d38133600454604051808373ffffffffffffffffffffffffffffffffffffffff1673ffffffffffffffffffffffffffffffffffffffff1681526020018281526020019250505060405180910390a16102d7565b5b5b600190505b92915050565b60006002805490501480156102f9575060065481115b1561030657806006819055505b50565b60008060048190555060005460058190555060008090505b60028054905081101561043d57600360006002838154811061033f57fe5b9060005260206000200160009054906101000a900473ffffffffffffffffffffffffffffffffffffffff1673ffffffffffffffffffffffffffffffffffffffff1673ffffffffffffffffffffffffffffffffffffffff16815260200190815260200160002054600460008282540192505081905550600060036000600284815481106103c757fe5b9060005260206000200160009054906101000a900473ffffffffffffffffffffffffffffffffffffffff1673ffffffffffffffffffffffffffffffffffffffff1673ffffffffffffffffffffffffffffffffffffffff168152602001908152602001600020819055508080600101915050610321565b506001905090565b50805460008255906000526020600020908101906104639190610466565b50565b61048891905b8082111561048457600081600090555060010161046c565b5090565b9056fea265627a7a72315820011dcbab57321c75e8c0b6e4477ece481a1726796f5c780fbd1112eb9624657364736f6c63430005100032",
  "source": "pragma solidity ^0.5.0;\n// 构建好的合约数据被保存在了build/contract目录下\ncontract Recorder {\n\n    event RecordDone(address from, int amount);\n    event prepareGiftDone(address from, int amount);\n    // 从init task中继承过来\n    uint taskReqNum = 2;\n\n    uint writeCounter = 0;\n    address[] partnerList;\n    mapping(address => int) recorder;\n\n    int gift = 0;\n    uint giftsLeft = 0;\n    \n    uint SNEpoch = 0;\n    \n    // TODO: 需要防止重放攻击\n    function writeCounterAdd() private returns (bool) {\n        writeCounter += 1;\n        return true;\n    }\n\n    function prepareGift() private returns (bool){\n        gift = 0;\n        giftsLeft = taskReqNum;\n        for(uint i = 0; i < partnerList.length; i++) {\n            gift += recorder[partnerList[i]];\n            // 需要清空上一次的迭代值\n            recorder[partnerList[i]] = 0;\n        }\n        return true;\n    }\n    // TODO: function resetGift() private {gift = 0;}\n\n    function updateSNEpoch(uint epoch) private {\n        if (partnerList.length == 0 && epoch > SNEpoch) {\n            SNEpoch = epoch;\n        }\n    }\n\n    // MLNode在callBack中调用的函数, 用于记录本地计算出来的参数以及参数所属的伦次\n    function recordPara(int para, uint epoch) public returns (bool) {\n        // 检查是否需要更新Epoch Numb\n        updateSNEpoch(epoch);\n        // 如果MLNode传来的Epoch小于当前记录的Epoch, 则返回false\n        // TODO: (ML行为/待商讨) 若返回false时代表着该节点计算的太慢了\n        if (epoch < SNEpoch) {return false;}\n        // 记录本地计算出的参数\n        recorder[msg.sender] = para;\n        // 记录传递参数的MLNode信息\n        partnerList.push(msg.sender);\n        // 返回记录成功的事件\n        emit RecordDone(msg.sender, para);\n        // 调用合并函数并清空当前的数组\n        if (partnerList.length >= taskReqNum) {\n            if (prepareGift() == true) {\n                delete partnerList;\n                emit prepareGiftDone(msg.sender, gift);\n            } else {\n                // TODO: failed 事件\n            }\n        }\n        return true;\n    }\n\n    // 当MLNode监听到prepareGiftDone事件时可调用此方法\n    // TODO: 原子性检查\n    function getGift() public returns (uint, uint, int) {\n        if (giftsLeft <= 0) {\n            // 需要设置一个特殊的编码\n            // TODO: (待商讨; MLNode行为)如果SNEpoch小于本地Epoch 则本地等待?\n            return (giftsLeft, SNEpoch, 0);\n        }\n        giftsLeft -= 1;\n        // 只有当gitsLeft不等与0时, MLNode才能认为其是正常的\n        return (giftsLeft, SNEpoch, gift);\n    }\n\n}",
  "sourcePath": "/Users/haroldlee/Downloads/pet-shop-tutorial/contracts/Recorder.sol",
  "compiler": {
    "name": "solc",
    "version": "0.5.16+commit.9c3226ce.Emscripten.clang"
  },
  "schemaVersion": "3.4.5",
  "updatedAt": "2022-02-24T03:35:39.289Z",
  "devdoc": {
    "methods": {}
  },
  "userdoc": {
    "methods": {}
  }
}