{
  "contractName": "TaskHandler",
  "abi": [
    {
      "constant": false,
      "inputs": [
        {
          "internalType": "uint256",
          "name": "taskID",
          "type": "uint256"
        }
      ],
      "name": "killTask",
      "outputs": [
        {
          "internalType": "bool",
          "name": "",
          "type": "bool"
        }
      ],
      "payable": false,
      "stateMutability": "nonpayable",
      "type": "function"
    },
    {
      "constant": false,
      "inputs": [
        {
          "internalType": "string",
          "name": "desc",
          "type": "string"
        },
        {
          "internalType": "uint256",
          "name": "reqNum",
          "type": "uint256"
        }
      ],
      "name": "taskHandler",
      "outputs": [
        {
          "internalType": "bool",
          "name": "",
          "type": "bool"
        }
      ],
      "payable": false,
      "stateMutability": "nonpayable",
      "type": "function"
    }
  ],
  "bytecode": "0x608060405234801561001057600080fd5b5061050c806100206000396000f3fe608060405234801561001057600080fd5b50600436106100365760003560e01c806350294d1a1461003b5780637f4f773c14610118575b600080fd5b6100fe6004803603604081101561005157600080fd5b810190808035906020019064010000000081111561006e57600080fd5b82018360208201111561008057600080fd5b803590602001918460018302840111640100000000831117156100a257600080fd5b91908080601f016020809104026020016040519081016040528093929190818152602001838380828437600081840152601f19601f8201169050808301925050505050505091929192908035906020019092919050505061015e565b604051808215151515815260200191505060405180910390f35b6101446004803603602081101561012e57600080fd5b8101908080359060200190929190505050610221565b604051808215151515815260200191505060405180910390f35b60008061016a84610259565b9050600015156001600083815260200190815260200160002060009054906101000a900460ff16151514156101d2576101a38484610303565b50600115156001600083815260200190815260200160002060009054906101000a90505050600191505061021b565b6001151560008083815260200190815260200160002060040160009054906101000a900460ff16151514156102155761020a816103d2565b50600191505061021b565b60009150505b92915050565b60008060008084815260200190815260200160002060040160006101000a81548160ff02191690831515021790555060019050919050565b60006002826040518082805190602001908083835b60208310610291578051825260208201915060208101905060208303925061026e565b6001836020036101000a038019825116818451168082178552505050505050905001915050602060405180830381855afa1580156102d3573d6000803e3d6000fd5b5050506040513d60208110156102e857600080fd5b810190808051906020019092919050505060001c9050919050565b600061030d610401565b8381600001819052506103238160000151610259565b816020018181525050828160400181815250506001816060018181525050600181608001901515908115158152505080600080836020015181526020019081526020016000206000820151816000019080519060200190610385929190610432565b5060208201518160010155604082015181600201556060820151816003015560808201518160040160006101000a81548160ff021916908315150217905550905050600191505092915050565b600060016000808481526020019081526020016000206003016000828254019250508190555060019050919050565b6040518060a00160405280606081526020016000815260200160008152602001600081526020016000151581525090565b828054600181600116156101000203166002900490600052602060002090601f016020900481019282601f1061047357805160ff19168380011785556104a1565b828001600101855582156104a1579182015b828111156104a0578251825591602001919060010190610485565b5b5090506104ae91906104b2565b5090565b6104d491905b808211156104d05760008160009055506001016104b8565b5090565b9056fea265627a7a72315820715c004675459ba9b85cf005e098840f9ac390ce2d94fad016d62541cde5326d64736f6c63430005100032",
  "source": "pragma solidity ^0.5.0;\n// TODO: 如何让不符合条件的入参直接返回而不执行更多的命令? event函数实现\n\ncontract TaskHandler {\n    struct Task {\n        string taskDesc;\n        uint taskID;      // 1 byte = uint8 = 0~256\n        uint taskReqNum;  // taskReqNum 从1开始计数, 且数据类型与currentNum保持一致\n        uint currentNum;  // byte32这个类型决定了partner数组的大小\n        bool status;      // alive or died/0 or 1\n    }\n    // 用来索引所有的TASK TODO: 是否要用两个表来保存活的和死得taskID\n    mapping(uint => Task) private taskDict;\n    // 用来保存TASKID\n    mapping(uint => bool) private taskIDList;\n\n    function genTaskID(string memory desc) private returns (uint) {\n        return uint(sha256(bytes(desc)));\n    }\n\n    // 初始化一个新任务\n    function initTask(string memory taskDesc, uint reqNum) private returns (bool){\n        Task memory task;\n\n        task.taskDesc = taskDesc;\n        task.taskID = genTaskID(task.taskDesc);\n        task.taskReqNum = reqNum;\n        task.currentNum = 1;\n        task.status = true;\n        taskDict[task.taskID] = task;\n        return true;\n    }\n\n    // 更新任务伙伴信息\n    function updateTask(uint taskID) private returns (bool) {\n        taskDict[taskID].currentNum += 1;\n        return true; // return SUC\n    }\n\n    // 任务执行完成时标记任务终止 TODO: 需要安全特性 防止taskID复活\n    function killTask(uint taskID) public returns (bool) {\n        taskDict[taskID].status = false;\n        return true; // return SUC\n    }\n\n    // 外部API\n    function taskHandler(string memory desc, uint reqNum) public returns (bool) {\n        uint id = genTaskID(desc);\n    // TODO: project:/contracts/TaskHandler.sol:47:13: TypeError: Operator == not compatible with types struct TaskHandler.Task storage ref and int_const 0\n    // if (taskDict[id] == 0) {\n    if (taskIDList[id] == false) {\n            initTask(desc, reqNum);\n            taskIDList[id] == true;\n            return true;\n        }\n        else if (taskDict[id].status == true) {\n            updateTask(id);\n            return true;\n        }\n        else return false;\n    }\n\n}\n",
  "sourcePath": "/Users/haroldlee/Downloads/pet-shop-tutorial/contracts/TaskHandler.sol",
  "compiler": {
    "name": "solc",
    "version": "0.5.16+commit.9c3226ce.Emscripten.clang"
  },
  "schemaVersion": "3.4.5",
  "updatedAt": "2022-02-24T03:35:39.292Z",
  "devdoc": {
    "methods": {}
  },
  "userdoc": {
    "methods": {}
  }
}